{
  "contractName": "TuitionToken",
  "abi": [
    {
      "anonymous": false,
      "inputs": [
        {
          "indexed": true,
          "internalType": "address",
          "name": "owner",
          "type": "address"
        },
        {
          "indexed": true,
          "internalType": "address",
          "name": "spender",
          "type": "address"
        },
        {
          "indexed": false,
          "internalType": "uint256",
          "name": "value",
          "type": "uint256"
        }
      ],
      "name": "Approval",
      "type": "event"
    },
    {
      "anonymous": false,
      "inputs": [
        {
          "indexed": true,
          "internalType": "address",
          "name": "previousOwner",
          "type": "address"
        },
        {
          "indexed": true,
          "internalType": "address",
          "name": "newOwner",
          "type": "address"
        }
      ],
      "name": "OwnershipTransferred",
      "type": "event"
    },
    {
      "anonymous": false,
      "inputs": [
        {
          "indexed": false,
          "internalType": "address",
          "name": "_buyer",
          "type": "address"
        },
        {
          "indexed": false,
          "internalType": "uint256",
          "name": "_amount",
          "type": "uint256"
        }
      ],
      "name": "Sell",
      "type": "event"
    },
    {
      "anonymous": false,
      "inputs": [
        {
          "indexed": true,
          "internalType": "address",
          "name": "from",
          "type": "address"
        },
        {
          "indexed": true,
          "internalType": "address",
          "name": "to",
          "type": "address"
        },
        {
          "indexed": false,
          "internalType": "uint256",
          "name": "value",
          "type": "uint256"
        }
      ],
      "name": "Transfer",
      "type": "event"
    },
    {
      "inputs": [
        {
          "internalType": "address",
          "name": "owner",
          "type": "address"
        },
        {
          "internalType": "address",
          "name": "spender",
          "type": "address"
        }
      ],
      "name": "allowance",
      "outputs": [
        {
          "internalType": "uint256",
          "name": "",
          "type": "uint256"
        }
      ],
      "stateMutability": "view",
      "type": "function"
    },
    {
      "inputs": [
        {
          "internalType": "address",
          "name": "spender",
          "type": "address"
        },
        {
          "internalType": "uint256",
          "name": "amount",
          "type": "uint256"
        }
      ],
      "name": "approve",
      "outputs": [
        {
          "internalType": "bool",
          "name": "",
          "type": "bool"
        }
      ],
      "stateMutability": "nonpayable",
      "type": "function"
    },
    {
      "inputs": [
        {
          "internalType": "address",
          "name": "account",
          "type": "address"
        }
      ],
      "name": "balanceOf",
      "outputs": [
        {
          "internalType": "uint256",
          "name": "",
          "type": "uint256"
        }
      ],
      "stateMutability": "view",
      "type": "function"
    },
    {
      "inputs": [],
      "name": "decimals",
      "outputs": [
        {
          "internalType": "uint8",
          "name": "",
          "type": "uint8"
        }
      ],
      "stateMutability": "view",
      "type": "function"
    },
    {
      "inputs": [
        {
          "internalType": "address",
          "name": "spender",
          "type": "address"
        },
        {
          "internalType": "uint256",
          "name": "subtractedValue",
          "type": "uint256"
        }
      ],
      "name": "decreaseAllowance",
      "outputs": [
        {
          "internalType": "bool",
          "name": "",
          "type": "bool"
        }
      ],
      "stateMutability": "nonpayable",
      "type": "function"
    },
    {
      "inputs": [],
      "name": "getOwner",
      "outputs": [
        {
          "internalType": "address",
          "name": "",
          "type": "address"
        }
      ],
      "stateMutability": "view",
      "type": "function"
    },
    {
      "inputs": [
        {
          "internalType": "address",
          "name": "spender",
          "type": "address"
        },
        {
          "internalType": "uint256",
          "name": "addedValue",
          "type": "uint256"
        }
      ],
      "name": "increaseAllowance",
      "outputs": [
        {
          "internalType": "bool",
          "name": "",
          "type": "bool"
        }
      ],
      "stateMutability": "nonpayable",
      "type": "function"
    },
    {
      "inputs": [
        {
          "internalType": "uint256",
          "name": "amount",
          "type": "uint256"
        }
      ],
      "name": "mint",
      "outputs": [
        {
          "internalType": "bool",
          "name": "",
          "type": "bool"
        }
      ],
      "stateMutability": "nonpayable",
      "type": "function"
    },
    {
      "inputs": [],
      "name": "name",
      "outputs": [
        {
          "internalType": "string",
          "name": "",
          "type": "string"
        }
      ],
      "stateMutability": "view",
      "type": "function"
    },
    {
      "inputs": [],
      "name": "owner",
      "outputs": [
        {
          "internalType": "address",
          "name": "",
          "type": "address"
        }
      ],
      "stateMutability": "view",
      "type": "function"
    },
    {
      "inputs": [],
      "name": "renounceOwnership",
      "outputs": [],
      "stateMutability": "nonpayable",
      "type": "function"
    },
    {
      "inputs": [],
      "name": "symbol",
      "outputs": [
        {
          "internalType": "string",
          "name": "",
          "type": "string"
        }
      ],
      "stateMutability": "view",
      "type": "function"
    },
    {
      "inputs": [],
      "name": "tokensSold",
      "outputs": [
        {
          "internalType": "uint256",
          "name": "",
          "type": "uint256"
        }
      ],
      "stateMutability": "view",
      "type": "function"
    },
    {
      "inputs": [],
      "name": "totalSupply",
      "outputs": [
        {
          "internalType": "uint256",
          "name": "",
          "type": "uint256"
        }
      ],
      "stateMutability": "view",
      "type": "function"
    },
    {
      "inputs": [
        {
          "internalType": "address",
          "name": "recipient",
          "type": "address"
        },
        {
          "internalType": "uint256",
          "name": "amount",
          "type": "uint256"
        }
      ],
      "name": "transfer",
      "outputs": [
        {
          "internalType": "bool",
          "name": "",
          "type": "bool"
        }
      ],
      "stateMutability": "nonpayable",
      "type": "function"
    },
    {
      "inputs": [
        {
          "internalType": "address",
          "name": "sender",
          "type": "address"
        },
        {
          "internalType": "address",
          "name": "recipient",
          "type": "address"
        },
        {
          "internalType": "uint256",
          "name": "amount",
          "type": "uint256"
        }
      ],
      "name": "transferFrom",
      "outputs": [
        {
          "internalType": "bool",
          "name": "",
          "type": "bool"
        }
      ],
      "stateMutability": "nonpayable",
      "type": "function"
    },
    {
      "inputs": [
        {
          "internalType": "address",
          "name": "newOwner",
          "type": "address"
        }
      ],
      "name": "transferOwnership",
      "outputs": [],
      "stateMutability": "nonpayable",
      "type": "function"
    },
    {
      "inputs": [
        {
          "internalType": "uint256",
          "name": "_numberOfTokens",
          "type": "uint256"
        }
      ],
      "name": "buyTokens",
      "outputs": [],
      "stateMutability": "payable",
      "type": "function"
    },
    {
      "inputs": [],
      "name": "endSale",
      "outputs": [],
      "stateMutability": "nonpayable",
      "type": "function"
    }
  ],
  "bytecode": "0x60806040526103e86007553480156200001757600080fd5b506040518060400160405280600781526020017f54554954494f4e000000000000000000000000000000000000000000000000008152506040518060400160405280600381526020017f54555400000000000000000000000000000000000000000000000000000000008152506000620000966200018a60201b60201c565b9050806000806101000a81548173ffffffffffffffffffffffffffffffffffffffff021916908373ffffffffffffffffffffffffffffffffffffffff1602179055508073ffffffffffffffffffffffffffffffffffffffff16600073ffffffffffffffffffffffffffffffffffffffff167f8be0079c531659141344cd1fd0a4f28419497f9722a3daafe3b4186f6b6457e060405160405180910390a35081600490805190602001906200014c92919062000192565b5080600590805190602001906200016592919062000192565b506012600660006101000a81548160ff021916908360ff1602179055505050620002a7565b600033905090565b828054620001a09062000242565b90600052602060002090601f016020900481019282620001c4576000855562000210565b82601f10620001df57805160ff191683800117855562000210565b8280016001018555821562000210579182015b828111156200020f578251825591602001919060010190620001f2565b5b5090506200021f919062000223565b5090565b5b808211156200023e57600081600090555060010162000224565b5090565b600060028204905060018216806200025b57607f821691505b6020821081141562000272576200027162000278565b5b50919050565b7f4e487b7100000000000000000000000000000000000000000000000000000000600052602260045260246000fd5b61252480620002b76000396000f3fe6080604052600436106101145760003560e01c806370a08231116100a0578063a0712d6811610064578063a0712d6814610384578063a457c2d7146103c1578063a9059cbb146103fe578063dd62ed3e1461043b578063f2fde38b1461047857610114565b806370a08231146102af578063715018a6146102ec578063893d20e8146103035780638da5cb5b1461032e57806395d89b411461035957610114565b8063313ce567116100e7578063313ce567146101e95780633610724e14610214578063380d831b146102305780633950935114610247578063518ab2a81461028457610114565b806306fdde0314610119578063095ea7b31461014457806318160ddd1461018157806323b872dd146101ac575b600080fd5b34801561012557600080fd5b5061012e6104a1565b60405161013b9190611dd1565b60405180910390f35b34801561015057600080fd5b5061016b60048036038101906101669190611b64565b610533565b6040516101789190611db6565b60405180910390f35b34801561018d57600080fd5b50610196610551565b6040516101a39190611eb3565b60405180910390f35b3480156101b857600080fd5b506101d360048036038101906101ce9190611b11565b61055b565b6040516101e09190611db6565b60405180910390f35b3480156101f557600080fd5b506101fe61061a565b60405161020b9190611ece565b60405180910390f35b61022e60048036038101906102299190611bd1565b610631565b005b34801561023c57600080fd5b50610245610948565b005b34801561025357600080fd5b5061026e60048036038101906102699190611b64565b610cf3565b60405161027b9190611db6565b60405180910390f35b34801561029057600080fd5b50610299610da6565b6040516102a69190611eb3565b60405180910390f35b3480156102bb57600080fd5b506102d660048036038101906102d19190611a77565b610dac565b6040516102e39190611eb3565b60405180910390f35b3480156102f857600080fd5b50610301610df5565b005b34801561030f57600080fd5b50610318610f48565b6040516103259190611d72565b60405180910390f35b34801561033a57600080fd5b50610343610f57565b6040516103509190611d72565b60405180910390f35b34801561036557600080fd5b5061036e610f80565b60405161037b9190611dd1565b60405180910390f35b34801561039057600080fd5b506103ab60048036038101906103a69190611bd1565b611012565b6040516103b89190611db6565b60405180910390f35b3480156103cd57600080fd5b506103e860048036038101906103e39190611b64565b6110c3565b6040516103f59190611db6565b60405180910390f35b34801561040a57600080fd5b5061042560048036038101906104209190611b64565b611176565b6040516104329190611db6565b60405180910390f35b34801561044757600080fd5b50610462600480360381019061045d9190611ad1565b611194565b60405161046f9190611eb3565b60405180910390f35b34801561048457600080fd5b5061049f600480360381019061049a9190611a77565b61121b565b005b6060600480546104b090612213565b80601f01602080910402602001604051908101604052809291908181526020018280546104dc90612213565b80156105295780601f106104fe57610100808354040283529160200191610529565b820191906000526020600020905b81548152906001019060200180831161050c57829003601f168201915b5050505050905090565b60006105476105406112bc565b84846112c4565b6001905092915050565b6000600354905090565b600061056884848461148f565b61060f846105746112bc565b61060a85600260008a73ffffffffffffffffffffffffffffffffffffffff1673ffffffffffffffffffffffffffffffffffffffff16815260200190815260200160002060006105c16112bc565b73ffffffffffffffffffffffffffffffffffffffff1673ffffffffffffffffffffffffffffffffffffffff1681526020019081526020016000205461170390919063ffffffff16565b6112c4565b600190509392505050565b6000600660009054906101000a900460ff16905090565b61064e8161063d61061a565b600a6106499190611fdf565b61172c565b9050803460075461065f91906120fd565b101561066a57600080fd5b803073ffffffffffffffffffffffffffffffffffffffff166370a082313073ffffffffffffffffffffffffffffffffffffffff1663893d20e86040518163ffffffff1660e01b815260040160206040518083038186803b1580156106cd57600080fd5b505afa1580156106e1573d6000803e3d6000fd5b505050506040513d601f19601f820116820180604052508101906107059190611aa4565b6040518263ffffffff1660e01b81526004016107219190611d72565b60206040518083038186803b15801561073957600080fd5b505afa15801561074d573d6000803e3d6000fd5b505050506040513d601f19601f820116820180604052508101906107719190611bfe565b101561077c57600080fd5b6108043073ffffffffffffffffffffffffffffffffffffffff1663893d20e86040518163ffffffff1660e01b815260040160206040518083038186803b1580156107c557600080fd5b505afa1580156107d9573d6000803e3d6000fd5b505050506040513d601f19601f820116820180604052508101906107fd9190611aa4565b338361148f565b61080c61061a565b600a6108189190611fdf565b8161082391906120fd565b600860008282546108349190611f05565b925050819055503073ffffffffffffffffffffffffffffffffffffffff1663893d20e86040518163ffffffff1660e01b815260040160206040518083038186803b15801561088157600080fd5b505afa158015610895573d6000803e3d6000fd5b505050506040513d601f19601f820116820180604052508101906108b99190611aa4565b73ffffffffffffffffffffffffffffffffffffffff166108fc600754836108e09190611f5b565b9081150290604051600060405180830381858888f1935050505015801561090b573d6000803e3d6000fd5b507f5e5e995ce3133561afceaa51a9a154d5db228cd7525d34df5185582c18d3df09338260405161093d929190611d8d565b60405180910390a150565b6109506112bc565b73ffffffffffffffffffffffffffffffffffffffff1660008054906101000a900473ffffffffffffffffffffffffffffffffffffffff1673ffffffffffffffffffffffffffffffffffffffff16146109dd576040517f08c379a00000000000000000000000000000000000000000000000000000000081526004016109d490611e53565b60405180910390fd5b3073ffffffffffffffffffffffffffffffffffffffff1663893d20e86040518163ffffffff1660e01b815260040160206040518083038186803b158015610a2357600080fd5b505afa158015610a37573d6000803e3d6000fd5b505050506040513d601f19601f82011682018060405250810190610a5b9190611aa4565b73ffffffffffffffffffffffffffffffffffffffff163373ffffffffffffffffffffffffffffffffffffffff1614610a9257600080fd5b3073ffffffffffffffffffffffffffffffffffffffff1663a9059cbb3073ffffffffffffffffffffffffffffffffffffffff1663893d20e86040518163ffffffff1660e01b815260040160206040518083038186803b158015610af457600080fd5b505afa158015610b08573d6000803e3d6000fd5b505050506040513d601f19601f82011682018060405250810190610b2c9190611aa4565b3073ffffffffffffffffffffffffffffffffffffffff166370a08231306040518263ffffffff1660e01b8152600401610b659190611d72565b60206040518083038186803b158015610b7d57600080fd5b505afa158015610b91573d6000803e3d6000fd5b505050506040513d601f19601f82011682018060405250810190610bb59190611bfe565b6040518363ffffffff1660e01b8152600401610bd2929190611d8d565b602060405180830381600087803b158015610bec57600080fd5b505af1158015610c00573d6000803e3d6000fd5b505050506040513d601f19601f82011682018060405250810190610c249190611ba4565b610c2d57600080fd5b3073ffffffffffffffffffffffffffffffffffffffff1663893d20e86040518163ffffffff1660e01b815260040160206040518083038186803b158015610c7357600080fd5b505afa158015610c87573d6000803e3d6000fd5b505050506040513d601f19601f82011682018060405250810190610cab9190611aa4565b73ffffffffffffffffffffffffffffffffffffffff166108fc479081150290604051600060405180830381858888f19350505050158015610cf0573d6000803e3d6000fd5b50565b6000610d9c610d006112bc565b84610d978560026000610d116112bc565b73ffffffffffffffffffffffffffffffffffffffff1673ffffffffffffffffffffffffffffffffffffffff16815260200190815260200160002060008973ffffffffffffffffffffffffffffffffffffffff1673ffffffffffffffffffffffffffffffffffffffff1681526020019081526020016000205461176590919063ffffffff16565b6112c4565b6001905092915050565b60085481565b6000600160008373ffffffffffffffffffffffffffffffffffffffff1673ffffffffffffffffffffffffffffffffffffffff168152602001908152602001600020549050919050565b610dfd6112bc565b73ffffffffffffffffffffffffffffffffffffffff1660008054906101000a900473ffffffffffffffffffffffffffffffffffffffff1673ffffffffffffffffffffffffffffffffffffffff1614610e8a576040517f08c379a0000000000000000000000000000000000000000000000000000000008152600401610e8190611e53565b60405180910390fd5b600073ffffffffffffffffffffffffffffffffffffffff1660008054906101000a900473ffffffffffffffffffffffffffffffffffffffff1673ffffffffffffffffffffffffffffffffffffffff167f8be0079c531659141344cd1fd0a4f28419497f9722a3daafe3b4186f6b6457e060405160405180910390a360008060006101000a81548173ffffffffffffffffffffffffffffffffffffffff021916908373ffffffffffffffffffffffffffffffffffffffff160217905550565b6000610f52610f57565b905090565b60008060009054906101000a900473ffffffffffffffffffffffffffffffffffffffff16905090565b606060058054610f8f90612213565b80601f0160208091040260200160405190810160405280929190818152602001828054610fbb90612213565b80156110085780601f10610fdd57610100808354040283529160200191611008565b820191906000526020600020905b815481529060010190602001808311610feb57829003601f168201915b5050505050905090565b600061101c6112bc565b73ffffffffffffffffffffffffffffffffffffffff1660008054906101000a900473ffffffffffffffffffffffffffffffffffffffff1673ffffffffffffffffffffffffffffffffffffffff16146110a9576040517f08c379a00000000000000000000000000000000000000000000000000000000081526004016110a090611e53565b60405180910390fd5b6110ba6110b46112bc565b8361178d565b60019050919050565b600061116c6110d06112bc565b8461116785600260006110e16112bc565b73ffffffffffffffffffffffffffffffffffffffff1673ffffffffffffffffffffffffffffffffffffffff16815260200190815260200160002060008973ffffffffffffffffffffffffffffffffffffffff1673ffffffffffffffffffffffffffffffffffffffff1681526020019081526020016000205461170390919063ffffffff16565b6112c4565b6001905092915050565b600061118a6111836112bc565b848461148f565b6001905092915050565b6000600260008473ffffffffffffffffffffffffffffffffffffffff1673ffffffffffffffffffffffffffffffffffffffff16815260200190815260200160002060008373ffffffffffffffffffffffffffffffffffffffff1673ffffffffffffffffffffffffffffffffffffffff16815260200190815260200160002054905092915050565b6112236112bc565b73ffffffffffffffffffffffffffffffffffffffff1660008054906101000a900473ffffffffffffffffffffffffffffffffffffffff1673ffffffffffffffffffffffffffffffffffffffff16146112b0576040517f08c379a00000000000000000000000000000000000000000000000000000000081526004016112a790611e53565b60405180910390fd5b6112b9816118e1565b50565b600033905090565b600073ffffffffffffffffffffffffffffffffffffffff168373ffffffffffffffffffffffffffffffffffffffff161415611334576040517f08c379a000000000000000000000000000000000000000000000000000000000815260040161132b90611e13565b60405180910390fd5b600073ffffffffffffffffffffffffffffffffffffffff168273ffffffffffffffffffffffffffffffffffffffff1614156113a4576040517f08c379a000000000000000000000000000000000000000000000000000000000815260040161139b90611e93565b60405180910390fd5b80600260008573ffffffffffffffffffffffffffffffffffffffff1673ffffffffffffffffffffffffffffffffffffffff16815260200190815260200160002060008473ffffffffffffffffffffffffffffffffffffffff1673ffffffffffffffffffffffffffffffffffffffff168152602001908152602001600020819055508173ffffffffffffffffffffffffffffffffffffffff168373ffffffffffffffffffffffffffffffffffffffff167f8c5be1e5ebec7d5bd14f71427d1e84f3dd0314c0f7b2291e5b200ac8c7c3b925836040516114829190611eb3565b60405180910390a3505050565b600073ffffffffffffffffffffffffffffffffffffffff168373ffffffffffffffffffffffffffffffffffffffff1614156114ff576040517f08c379a00000000000000000000000000000000000000000000000000000000081526004016114f690611df3565b60405180910390fd5b600073ffffffffffffffffffffffffffffffffffffffff168273ffffffffffffffffffffffffffffffffffffffff16141561156f576040517f08c379a000000000000000000000000000000000000000000000000000000000815260040161156690611e73565b60405180910390fd5b6115c181600160008673ffffffffffffffffffffffffffffffffffffffff1673ffffffffffffffffffffffffffffffffffffffff1681526020019081526020016000205461170390919063ffffffff16565b600160008573ffffffffffffffffffffffffffffffffffffffff1673ffffffffffffffffffffffffffffffffffffffff1681526020019081526020016000208190555061165681600160008573ffffffffffffffffffffffffffffffffffffffff1673ffffffffffffffffffffffffffffffffffffffff1681526020019081526020016000205461176590919063ffffffff16565b600160008473ffffffffffffffffffffffffffffffffffffffff1673ffffffffffffffffffffffffffffffffffffffff168152602001908152602001600020819055508173ffffffffffffffffffffffffffffffffffffffff168373ffffffffffffffffffffffffffffffffffffffff167fddf252ad1be2c89b69c2b068fc378daa952ba7f163c4a11628f55a4df523b3ef836040516116f69190611eb3565b60405180910390a3505050565b60008282111561171257600080fd5b600082846117209190612157565b90508091505092915050565b600080821415801561175657508282838561174791906120fd565b9250826117549190611f5b565b145b61175f57600080fd5b92915050565b60008082846117749190611f05565b90508381101561178357600080fd5b8091505092915050565b600073ffffffffffffffffffffffffffffffffffffffff168273ffffffffffffffffffffffffffffffffffffffff1614156117c757600080fd5b6117dc8160035461176590919063ffffffff16565b60038190555061183481600160008573ffffffffffffffffffffffffffffffffffffffff1673ffffffffffffffffffffffffffffffffffffffff1681526020019081526020016000205461176590919063ffffffff16565b600160008473ffffffffffffffffffffffffffffffffffffffff1673ffffffffffffffffffffffffffffffffffffffff168152602001908152602001600020819055508173ffffffffffffffffffffffffffffffffffffffff16600073ffffffffffffffffffffffffffffffffffffffff167fddf252ad1be2c89b69c2b068fc378daa952ba7f163c4a11628f55a4df523b3ef836040516118d59190611eb3565b60405180910390a35050565b600073ffffffffffffffffffffffffffffffffffffffff168173ffffffffffffffffffffffffffffffffffffffff161415611951576040517f08c379a000000000000000000000000000000000000000000000000000000000815260040161194890611e33565b60405180910390fd5b8073ffffffffffffffffffffffffffffffffffffffff1660008054906101000a900473ffffffffffffffffffffffffffffffffffffffff1673ffffffffffffffffffffffffffffffffffffffff167f8be0079c531659141344cd1fd0a4f28419497f9722a3daafe3b4186f6b6457e060405160405180910390a3806000806101000a81548173ffffffffffffffffffffffffffffffffffffffff021916908373ffffffffffffffffffffffffffffffffffffffff16021790555050565b600081359050611a1d816124a9565b92915050565b600081519050611a32816124a9565b92915050565b600081519050611a47816124c0565b92915050565b600081359050611a5c816124d7565b92915050565b600081519050611a71816124d7565b92915050565b600060208284031215611a8d57611a8c6122d2565b5b6000611a9b84828501611a0e565b91505092915050565b600060208284031215611aba57611ab96122d2565b5b6000611ac884828501611a23565b91505092915050565b60008060408385031215611ae857611ae76122d2565b5b6000611af685828601611a0e565b9250506020611b0785828601611a0e565b9150509250929050565b600080600060608486031215611b2a57611b296122d2565b5b6000611b3886828701611a0e565b9350506020611b4986828701611a0e565b9250506040611b5a86828701611a4d565b9150509250925092565b60008060408385031215611b7b57611b7a6122d2565b5b6000611b8985828601611a0e565b9250506020611b9a85828601611a4d565b9150509250929050565b600060208284031215611bba57611bb96122d2565b5b6000611bc884828501611a38565b91505092915050565b600060208284031215611be757611be66122d2565b5b6000611bf584828501611a4d565b91505092915050565b600060208284031215611c1457611c136122d2565b5b6000611c2284828501611a62565b91505092915050565b611c348161218b565b82525050565b611c438161219d565b82525050565b6000611c5482611ee9565b611c5e8185611ef4565b9350611c6e8185602086016121e0565b611c77816122d7565b840191505092915050565b6000611c8f602583611ef4565b9150611c9a826122f5565b604082019050919050565b6000611cb2602483611ef4565b9150611cbd82612344565b604082019050919050565b6000611cd5602683611ef4565b9150611ce082612393565b604082019050919050565b6000611cf8602083611ef4565b9150611d03826123e2565b602082019050919050565b6000611d1b602383611ef4565b9150611d268261240b565b604082019050919050565b6000611d3e602283611ef4565b9150611d498261245a565b604082019050919050565b611d5d816121c9565b82525050565b611d6c816121d3565b82525050565b6000602082019050611d876000830184611c2b565b92915050565b6000604082019050611da26000830185611c2b565b611daf6020830184611d54565b9392505050565b6000602082019050611dcb6000830184611c3a565b92915050565b60006020820190508181036000830152611deb8184611c49565b905092915050565b60006020820190508181036000830152611e0c81611c82565b9050919050565b60006020820190508181036000830152611e2c81611ca5565b9050919050565b60006020820190508181036000830152611e4c81611cc8565b9050919050565b60006020820190508181036000830152611e6c81611ceb565b9050919050565b60006020820190508181036000830152611e8c81611d0e565b9050919050565b60006020820190508181036000830152611eac81611d31565b9050919050565b6000602082019050611ec86000830184611d54565b92915050565b6000602082019050611ee36000830184611d63565b92915050565b600081519050919050565b600082825260208201905092915050565b6000611f10826121c9565b9150611f1b836121c9565b9250827fffffffffffffffffffffffffffffffffffffffffffffffffffffffffffffffff03821115611f5057611f4f612245565b5b828201905092915050565b6000611f66826121c9565b9150611f71836121c9565b925082611f8157611f80612274565b5b828204905092915050565b6000808291508390505b6001851115611fd657808604811115611fb257611fb1612245565b5b6001851615611fc15780820291505b8081029050611fcf856122e8565b9450611f96565b94509492505050565b6000611fea826121c9565b9150611ff5836121d3565b92506120227fffffffffffffffffffffffffffffffffffffffffffffffffffffffffffffffff848461202a565b905092915050565b60008261203a57600190506120f6565b8161204857600090506120f6565b816001811461205e576002811461206857612097565b60019150506120f6565b60ff84111561207a57612079612245565b5b8360020a91508482111561209157612090612245565b5b506120f6565b5060208310610133831016604e8410600b84101617156120cc5782820a9050838111156120c7576120c6612245565b5b6120f6565b6120d98484846001611f8c565b925090508184048111156120f0576120ef612245565b5b81810290505b9392505050565b6000612108826121c9565b9150612113836121c9565b9250817fffffffffffffffffffffffffffffffffffffffffffffffffffffffffffffffff048311821515161561214c5761214b612245565b5b828202905092915050565b6000612162826121c9565b915061216d836121c9565b9250828210156121805761217f612245565b5b828203905092915050565b6000612196826121a9565b9050919050565b60008115159050919050565b600073ffffffffffffffffffffffffffffffffffffffff82169050919050565b6000819050919050565b600060ff82169050919050565b60005b838110156121fe5780820151818401526020810190506121e3565b8381111561220d576000848401525b50505050565b6000600282049050600182168061222b57607f821691505b6020821081141561223f5761223e6122a3565b5b50919050565b7f4e487b7100000000000000000000000000000000000000000000000000000000600052601160045260246000fd5b7f4e487b7100000000000000000000000000000000000000000000000000000000600052601260045260246000fd5b7f4e487b7100000000000000000000000000000000000000000000000000000000600052602260045260246000fd5b600080fd5b6000601f19601f8301169050919050565b60008160011c9050919050565b7f42455032303a207472616e736665722066726f6d20746865207a65726f20616460008201527f6472657373000000000000000000000000000000000000000000000000000000602082015250565b7f42455032303a20617070726f76652066726f6d20746865207a65726f2061646460008201527f7265737300000000000000000000000000000000000000000000000000000000602082015250565b7f4f776e61626c653a206e6577206f776e657220697320746865207a65726f206160008201527f6464726573730000000000000000000000000000000000000000000000000000602082015250565b7f4f776e61626c653a2063616c6c6572206973206e6f7420746865206f776e6572600082015250565b7f42455032303a207472616e7366657220746f20746865207a65726f206164647260008201527f6573730000000000000000000000000000000000000000000000000000000000602082015250565b7f42455032303a20617070726f766520746f20746865207a65726f20616464726560008201527f7373000000000000000000000000000000000000000000000000000000000000602082015250565b6124b28161218b565b81146124bd57600080fd5b50565b6124c98161219d565b81146124d457600080fd5b50565b6124e0816121c9565b81146124eb57600080fd5b5056fea2646970667358221220bc9c66f8b1eec677a8718ad82697ee603eb2660b3c846c027ae2bc09205be96e64736f6c63430008060033",
  "immutableReferences": {},
  "source": "pragma solidity >=0.4.22 <0.9.0;\r\n\r\nimport './libs/BEP20.sol';\r\nimport './libs/Context.sol';\r\nimport './libs/Ownable.sol';\r\n\r\ncontract TuitionToken is BEP20(\"TUITION\", \"TUT\"){\r\n    uint rate = 1000;       // correspond to token price   0.001 bnb\r\n\r\n    uint256 public tokensSold;\r\n\r\n    event Sell(address _buyer, uint256 _amount);\r\n\r\n    function multiply(uint x, uint y) internal pure returns (uint z) {\r\n        require(y != 0 && (z = x * y) / y == x);\r\n    }\r\n\r\n    function buyTokens(uint256 _numberOfTokens) public payable {\r\n        _numberOfTokens = multiply(_numberOfTokens , (10 ** decimals()));\r\n        require(rate * msg.value >= _numberOfTokens);\r\n        require(this.balanceOf(this.getOwner()) >= _numberOfTokens);\r\n        // send required tokens to msg.sender as users\r\n        _transfer(this.getOwner(), msg.sender, _numberOfTokens);\r\n\r\n        tokensSold += _numberOfTokens * (10 ** decimals());\r\n        // send correct amount of bnb to owner\r\n        // payable(msg.sender).transfer(_numberOfTokens * tokenPrice);\r\n        payable(this.getOwner()).transfer(_numberOfTokens / rate);\r\n\r\n        emit Sell(msg.sender, _numberOfTokens);\r\n    }\r\n\r\n    function endSale() public onlyOwner {\r\n        require(msg.sender == this.getOwner());\r\n        require(this.transfer(this.getOwner(), this.balanceOf(address(this))));\r\n\r\n        // UPDATE: Let's not destroy the contract here\r\n        // Just transfer the balance to the admin\r\n        payable(this.getOwner()).transfer(address(this).balance);\r\n    }\r\n}\r\n",
  "sourcePath": "D:\\6.DevProject\\Blockchain\\3.Client-project\\TUITION\\ICOLandingPage\\src\\contracts\\TuitionToken.sol",
  "compiler": {
    "name": "solc",
    "version": "0.8.6+commit.11564f7e.Emscripten.clang"
  },
  "schemaVersion": "3.4.4",
  "updatedAt": "2022-03-06T16:56:56.312Z",
  "devdoc": {
    "kind": "dev",
    "methods": {
      "allowance(address,address)": {
        "details": "See {BEP20-allowance}."
      },
      "approve(address,uint256)": {
        "details": "See {BEP20-approve}. Requirements: - `spender` cannot be the zero address."
      },
      "balanceOf(address)": {
        "details": "See {BEP20-balanceOf}."
      },
      "decimals()": {
        "details": "Returns the number of decimals used to get its user representation."
      },
      "decreaseAllowance(address,uint256)": {
        "details": "Atomically decreases the allowance granted to `spender` by the caller. This is an alternative to {approve} that can be used as a mitigation for problems described in {BEP20-approve}. Emits an {Approval} event indicating the updated allowance. Requirements: - `spender` cannot be the zero address. - `spender` must have allowance for the caller of at least `subtractedValue`."
      },
      "getOwner()": {
        "details": "Returns the bep token owner."
      },
      "increaseAllowance(address,uint256)": {
        "details": "Atomically increases the allowance granted to `spender` by the caller. This is an alternative to {approve} that can be used as a mitigation for problems described in {BEP20-approve}. Emits an {Approval} event indicating the updated allowance. Requirements: - `spender` cannot be the zero address."
      },
      "mint(uint256)": {
        "details": "Creates `amount` tokens and assigns them to `msg.sender`, increasing the total supply. Requirements - `msg.sender` must be the token owner"
      },
      "name()": {
        "details": "Returns the name of the token."
      },
      "owner()": {
        "details": "Returns the address of the current owner."
      },
      "renounceOwnership()": {
        "details": "Leaves the contract without owner. It will not be possible to call `onlyOwner` functions anymore. Can only be called by the current owner. NOTE: Renouncing ownership will leave the contract without an owner, thereby removing any functionality that is only available to the owner."
      },
      "symbol()": {
        "details": "Returns the symbol of the token, usually a shorter version of the name."
      },
      "totalSupply()": {
        "details": "See {BEP20-totalSupply}."
      },
      "transfer(address,uint256)": {
        "details": "See {BEP20-transfer}. Requirements: - `recipient` cannot be the zero address. - the caller must have a balance of at least `amount`."
      },
      "transferFrom(address,address,uint256)": {
        "details": "See {BEP20-transferFrom}. Emits an {Approval} event indicating the updated allowance. This is not required by the EIP. See the note at the beginning of {BEP20}; Requirements: - `sender` and `recipient` cannot be the zero address. - `sender` must have a balance of at least `amount`. - the caller must have allowance for `sender`'s tokens of at least `amount`."
      },
      "transferOwnership(address)": {
        "details": "Transfers ownership of the contract to a new account (`newOwner`). Can only be called by the current owner."
      }
    },
    "version": 1
  },
  "userdoc": {
    "kind": "user",
    "methods": {},
    "version": 1
  }
}